S01D000053656D61666F726F5F55534152545F6D65737472652E73726563EE
S11300000C9424010C942F040C9441010C94410190
S11300100C9441010C9485020C9441010C9441010F
S11300200C9441010C9441010C9441010C94410144
S11300300C9441010C9441010C9443010C94410132
S11300400C9441010C9441010C9441010C94410124
S11300500C9441010C9441010C9441010C94410114
S11300600C9441010C944101000000000000005F69
S113007000000007000700147F147F14242A7F2A3D
S11300801223130864623649552250000503000008
S1130090001C2241000041221C0014083E081408E0
S11300A0083E0808005030000008080808080060EE
S11300B060000020100804023E5149453E00427F82
S11300C0400042615149462141454B311814127F89
S11300D01027454545393C4A494930017109050312
S11300E03649494936064949291E0036360000007A
S11300F0563600000814224100141414141400414C
S11301002214080201510906324979413E7E111137
S1130110117E7F494949363E414141227F41412276
S11301201C7F494949417F090909013E4149497AEE
S11301307F0808087F00417F41002040413F017F44
S1130140081422417F404040407F020C027F7F041C
S113015008107F3E4141413E7F090909063E415155
S1130160215E7F09192946464949493101017F0128
S1130170013F4040403F1F2040201F3F4038403F48
S11301806314081463070870080761514945430064
S11301907F41410002040810200041417F00040215
S11301A00102044040404040000102040020545435
S11301B054787F48444438384444442038444448BC
S11301C07F3854545418087E0901020C5252523E8E
S11301D07F0804047800447D40002040443D007FB3
S11301E01028440000417F40007C041804787C08F7
S11301F004047838444444387C141414080814144F
S1130200187C7C080404084854545420043F444097
S1130210203C4040207C1C2040201C3C4030403C82
S113022044281028440C5050503C4464544C44001E
S11302300836410000007F00000041360800100825
S1130240081008000000000011241FBECFEFD8E002
S1130250DEBFCDBF11E0A0E0B1E0E8EFF9E102C0FC
S113026005900D92AA33B107D9F723E0AAE3B1E0D0
S113027001C01D92A036B207E1F70E94F0070C946A
S1130280FA0C0C9400001F920F920FB60F921124D7
S11302908F939F93AF93BF93809152019091530199
S11302A0A0915401B09155010196A11DB11D8093F7
S11302B0520190935301A0935401B0935501BF91FF
S11302C0AF919F918F910F900FBE0F901F90189533
S11302D00F931F93CF93DF93062F142F1F928F93A7
S11302E0C5E0D1E0DF93CF9384E593E09F938F93B0
S11302F00E94100A1F920F93DF93CF9382E593E03D
S11303009F938F930E94100A1F921F93DF93CF93A2
S11303108AE593E09F938F930E94100A8091410194
S11303208F93809140018F9380913F018F938091AF
S11303303E018F93DF93CF9386E593E09F938F9352
S11303400E94100A209178003091790040E050E03A
S113035068E17CE98FE090E00E94F109DA01C901CB
S1130360885E9340A109B109BF93AF939F938F9384
S1130370DF93CF938CE593E09F938F930E94100AB1
S11303808DB79EB782960FB6F8949EBF0FBE8DBFF1
S11303900E94CC0860E080E30E94A50962E088E046
S11303A091E00E9494096AE080E30E94A50962E05A
S11303B088E091E00E94940964E180E30E94A50929
S11303C062E088E091E00E9494096EE180E30E947B
S11303D0A50962E088E091E00E94940968E280E364
S11303E00E94A50962E088E091E00E94940960E01F
S11303F080E00E94A50961E08AE091E00E949409EE
S113040060E085E20E94A50961E084E593E00E9432
S113041094096DE080E00E94A50961E081E191E02A
S11304200E9494096DE085E20E94A50961E082E5DD
S113043093E00E9494096BE180E00E94A50961E0C9
S113044088E191E00E9494096BE185E20E94A5098C
S113045061E08AE593E00E949409809156019091AD
S11304605701039781F480913A0190913B010197E0
S113047051F468E280E00E94A50961E08FE191E017
S11304800E94940909C068E280E00E94A50961E025
S113049087E291E00E94940968E08EE30E94A50936
S11304A061E08CE593E00E94940962E18EE30E948E
S11304B0A50961E08FE291E00E9494096EE18EE368
S11304C00E94A50961E086E593E00E94940966E232
S11304D08EE30E94A50961E083E391E00E94940900
S11304E0809156016DE0869F602D11248DE20E945B
S11304F0A50961E087E391E00E9494090E94AA099A
S1130500DF91CF911F910F9108951F920F920FB613
S11305100F9211242F933F934F935F936F937F9385
S11305208F939F93AF93BF93EF93FF934E993DC0E7
S113053080915601909157010196909357018093B1
S11305405601892B41F4409102016091030180918D
S113055004010E946801809156019091570101970E
S113056041F44091020160910301809104010E94D1
S113057068018091560190915701029741F440918E
S1130580020160910301809104010E94680180913D
S1130590560190915701039741F4409102016091F3
S11305A00301809104010E94680180915601909199
S11305B05701049764F0109257011092560140912C
S11305C0020160910301809104010E9468014C9929
S11305D073C08091560190915701892B99F48091B1
S11305E00401893020F089E08093040103C08F5F07
S11305F08093040140910201609103018091040100
S11306000E9468018091560190915701019799F4D5
S113061080910301893020F089E08093030103C0B5
S11306208F5F8093030140910201609103018091E7
S113063004010E946801809156019091570102972C
S113064099F480910201893020F089E080930201BD
S113065003C08F5F80930201409102016091030106
S1130660809104010E946801809156019091570184
S1130670039711F581E090E090933B0180933A0158
S113068060913E0170913F01809140019091410140
S11306902CE330E040E050E00E94CF0941E0420FFB
S11306A0409302018AE0841B8093040191E09093BB
S11306B0030161E00E9468014D9971C08091560167
S11306C090915701892B99F480910401823020F490
S11306D081E08093040103C0815080930401409120
S11306E0020160910301809104010E9468018091DC
S11306F0560190915701019799F48091030182303A
S113070020F481E08093030103C0815080930301AE
S11307104091020160910301809104010E946801EB
S11307208091560190915701029799F480910201AA
S1130730823020F481E08093020103C081508093D1
S113074002014091020160910301809104010E9421
S113075068018091560190915701039701F5109219
S11307603B0110923A0160913E0170913F018091EA
S11307704001909141012CE330E040E050E00E94C0
S1130780CF0941E0420F409302018AE0841B809329
S1130790040191E09093030161E00E946801FF91DC
S11307A0EF91BF91AF919F918F917F916F915F91E5
S11307B04F913F912F910F900FBE0F901F9018955E
S11307C00F931F9340915201509153016091540132
S11307D0709155018091420190914301A09144018F
S11307E0B09145018A019B01081B190B2A0B3B0B95
S11307F0D901C80188389341A105B10568F18091F8
S11308003C0190913D019C01220F331F820F931FE5
S1130810880F991F880F991F092E000CAA0BBB0B78
S113082080933E0190933F01A0934001B093410116
S113083040934201509343016093440170934501F6
S113084010923D0110923C0140910201609103011C
S1130850809104010E9468011F910F9108951F92D5
S11308600F920FB60F9211242F933F934F935F93E0
S11308706F937F938F939F93AF93BF93EF93FF9364
S113088080913C0190913D01019690933D018093AC
S11308903C0180914E0190914F01A0915001B09183
S11308A051010196A11DB11D80934E0190934F01FA
S11308B0A0935001B09351010E94E003FF91EF9186
S11308C0BF91AF919F918F917F916F915F914F9164
S11308D03F912F910F900FBE0F901F90189580910C
S11308E0520190915301A0915401B091550140914E
S11308F04A0150914B0160914C0170914D01841B50
S1130900950BA60BB70B843F9140A105B10508F4E4
S113091065C0209178003091790040E050E068E1B2
S11309207CE98FE090E00E94F109DA01C901885E58
S11309309340A109B1098D329140A105B10594F408
S1130940369B0CC080913E0190913F01A0914001E3
S1130950B0914101892B8A2B8B2B21F08AEF809354
S1130960B4002CC0209178003091790040E050E030
S113097068E17CE98FE090E00E94F109DA01C901A5
S1130980885E9340A109B1098D329140A105B1055A
S113099094F4369B10C080913E0190913F01A09148
S11309A04001B0914101892B8A2B8B2B21F480E5E6
S11309B08093B40003C081E08093B400809152011D
S11309C090915301A0915401B091550180934A0133
S11309D090934B01A0934C01B0934D0140910201BF
S11309E060910301809104010E946801089590912F
S11309F0C00095FFFCCF8093C6000895809100014C
S1130A00909101010197F1F480EF85B986E00E948D
S1130A10F7048091520190915301A0915401B09137
S1130A2055018093460190934701A0934801B093E8
S1130A304901809100019091010101969093010177
S1130A4080930001409152015091530160915401EF
S1130A50709155018091460190914701A091480100
S1130A60B0914901481B590B6A0B7B0B809104011F
S1130A702AEF829FC0011124092E000CAA0BBB0B84
S1130A80481759076A077B0720F18091000190916C
S1130A9001010297F1F480E785B987E00E94F70429
S1130AA08091520190915301A0915401B09155014C
S1130AB08093460190934701A0934801B093490164
S1130AC0809100019091010101969093010180931E
S1130AD00001409152015091530160915401709171
S1130AE055018091460190914701A0914801B09130
S1130AF04901481B590B6A0B7B0B809104012AEFB7
S1130B00829FC0011124092E000CAA0BBB0B4817AD
S1130B1059076A077B0720F1809100019091010138
S1130B200397F1F480E385B987E00E94F70480918C
S1130B30520190915301A0915401B09155018093B9
S1130B40460190934701A0934801B09349018091D5
S1130B50000190910101019690930101809300019D
S1130B60409152015091530160915401709155018B
S1130B708091460190914701A0914801B0914901AB
S1130B80481B590B6A0B7B0B809104012AEF829F4F
S1130B90C0011124092E000CAA0BBB0B48175907DE
S1130BA06A077B0720F1809100019091010104976D
S1130BB0F1F480E185B988E00E94F7048091520144
S1130BC090915301A0915401B09155018093460135
S1130BD090934701A0934801B0934901809100018B
S1130BE0909101010196909301018093000140913D
S1130BF052015091530160915401709155018091BB
S1130C00460190914701A0914801B0914901481BC8
S1130C10590B6A0B7B0B809104012AEF829FC00160
S1130C201124092E000CAA0BBB0B481759076A079D
S1130C307B0718F180910001909101010597E9F477
S1130C4015B889E00E94F7048091520190915301F4
S1130C50A0915401B09155018093460190934701AE
S1130C60A0934801B0934901809100019091010142
S1130C7001969093010180930001089580910001F1
S1130C80909101010B97F9F48BB180688BB985E0E1
S1130C900E94F7048091520190915301A091540154
S1130CA0B09155018093460190934701A093480168
S1130CB0B0934901809100019091010101969093B4
S1130CC001018093000140915201509153016091C0
S1130CD05401709155018091460190914701A09172
S1130CE04801B0914901481B590B6A0B7B0BE091F9
S1130CF0030128EE33E0E29FC001E39F900D11242D
S1130D00092E000CAA0BBB0B481759076A077B076F
S1130D10F8F080910001909101010C97C9F48BB116
S1130D208F778BB98091520190915301A091540116
S1130D30B09155018093460190934701A0934801D7
S1130D40B093490181E090E0909301018093000108
S1130D50089580910001909101010697F1F48FE0CC
S1130D6085B980E00E94F70480915201909153016B
S1130D70A0915401B091550180934601909347018D
S1130D80A0934801B0934901809100019091010121
S1130D90019690930101809300014091520150917A
S1130DA053016091540170915501809146019091D5
S1130DB04701A0914801B0914901481B590B6A0BA6
S1130DC07B0B809102012AEF829FC0011124092E1E
S1130DD0000CAA0BBB0B481759076A077B0720F1C5
S1130DE080910001909101010797F1F487E085B9A2
S1130DF081E00E94F7048091520190915301A091E7
S1130E005401B09155018093460190934701A093FA
S1130E104801B0934901809100019091010101962C
S1130E20909301018093000140915201509153012C
S1130E306091540170915501809146019091470150
S1130E40A0914801B0914901481B590B6A0B7B0BD7
S1130E50809102012AEF829FC0011124092E000C07
S1130E60AA0BBB0B481759076A077B0720F180912F
S1130E700001909101010897F1F483E085B982E0C3
S1130E800E94F7048091520190915301A091540162
S1130E90B09155018093460190934701A093480176
S1130EA0B0934901809100019091010101969093C2
S1130EB001018093000140915201509153016091CE
S1130EC05401709155018091460190914701A09180
S1130ED04801B0914901481B590B6A0B7B0B809167
S1130EE002012AEF829FC0011124092E000CAA0BD3
S1130EF0BB0B481759076A077B0720F18091000153
S1130F00909101010997F1F481E085B983E00E9491
S1130F10F7048091520190915301A0915401B09132
S1130F2055018093460190934701A0934801B093E3
S1130F304901809100019091010101969093010172
S1130F4080930001409152015091530160915401EA
S1130F50709155018091460190914701A0914801FB
S1130F60B0914901481B590B6A0B7B0B809102011C
S1130F702AEF829FC0011124092E000CAA0BBB0B7F
S1130F80481759076A077B0718F18091000190916F
S1130F9001010A97E9F415B884E00E94F7048091EE
S1130FA0520190915301A0915401B0915501809345
S1130FB0460190934701A0934801B0934901809161
S1130FC00001909101010196909301018093000129
S1130FD008950E943E060E94FE040E94A9060895F8
S1130FE02FEF24B98BE88AB98BB184678BB98EEB68
S1130FF087B988B1806488B982E08093690091E000
S11310009DBB94E09093680030E730936D009BBBE8
S113101030E430937C0037EE30937A0010927B00FA
S11310203EE330937E0033E23093B0009093B100FE
S11310301092B4001092C5002093C40098E99093D4
S1131040C10096E09093C20084BD93E095BD99EFF2
S113105097BD80936E0078940E94740840910201B9
S113106060910301809104010E9468010E94E907D4
S11310700E94E0030E946F04F9CF98B19D7F98B954
S1131080662329F098B1986098B990E01FC098B190
S1131090977F98B9FACF47E050E0491B5109282FB0
S11310A030E002C0359527954A95E2F720FF04C049
S11310B028B1206128B903C028B12F7E28B928B1EE
S11310C0206228B928B12F7D28B99F5F983018F382
S11310D088B1826088B9089560E00E943D0808954F
S11310E061E00E943D080895CF93DF9387B1826049
S11310F087B987B1846087B987B1886087B987B1B8
S1131100806187B987B1806287B988B1846088B902
S113111088B1826088B983EC99E00197F1F700C047
S1131120000088B18B7F88B98BE594E40197F1F7CF
S113113000C0000088B1846088B988B18D7F88B907
S113114081E20E946C0883E10E946C0886E00E94A0
S11311506C0882EC0E946C0880E20E946C0889E0B2
S11311600E946C0880E80E946C0880E40E946C086D
S1131170C0E0D0E004C080E00E9470082196C83F1F
S113118091E0D907C0F388E00E946C088CE00E94CB
S11311906C08DF91CF91089580E80E946C0880E488
S11311A00E946C08109250031092510380E090E06A
S11311B005C0FC01E85AFE4F10820196883F21E0E9
S11311C09207B8F30895262F26952695269590E044
S11311D034E5239F800D911D1124442379F0677019
S11311E021E030E002C0220F331F6A95E2F7FC01D0
S11311F0E85AFE4F8081282B20830895677021E0F0
S113120030E002C0220F331F6A95E2F7FC01E85A6E
S1131210FE4F20958081282320830895EF92FF922A
S11312200F931F93CF93DF93E82EF62E00E045C073
S11312302E2D30E020523109802F6F2D0E94C309DA
S1131240F901EE0FFF1FEE0FFF1FE20FF31FE80F70
S1131250F11DE859FF4FE491812F0E94C309F0E08A
S113126002C0F595E7958A95E2F7E0FF0AC0609120
S1131270510380915003610F41E0800F0E94E30805
S113128009C06091510380915003610F40E0800FC9
S11312900E94E3081F5F01C010E0212F30E0CE015F
S11312A0880F991F880F991F880F991F8C1B9D0BFE
S11312B0281739070CF4BCCF0F5F202F30E0CF2D57
S11312C0D0E0CE01880F991F880F991F8C0F9D1FA6
S11312D0281739070CF3E0E5F3E08F2D880F880F0A
S11312E08F0D9081890F8F5F8083843570F0109209
S11312F05003E1E5F3E08F2D880F880F880F982FB6
S11313009F198081890F8F5F80838091510380337F
S113131020F01092500310925103DF91CF911F914E
S11313200F91FF90EF9008951F93CF93DF93EC01FB
S1131330162F04C02196612F0E940E098881811105
S1131340F9CFDF91CF911F9108958093500360935B
S113135051030895CF93DF9380E80E946C0880E4E2
S11313600E946C08C0E0D0E007C0FE01E85AFE4FBE
S113137080810E9470082196C83F81E0D807A8F3B5
S1131380DF91CF910895991B79E004C0991F9617B6
S113139008F0961B881F7A95C9F780950895A1E2F5
S11313A01A2EAA1BBB1BFD010DC0AA1FBB1FEE1FDB
S11313B0FF1FA217B307E407F50720F0A21BB30B26
S11313C0E40BF50B661F771F881F991F1A9469F7A2
S11313D060957095809590959B01AC01BD01CF01FE
S11313E00895052E97FB1EF400940E94080A57FDE9
S11313F007D00E94CF0907FC03D04EF40C94080ACE
S113140050954095309521953F4F4F4F5F4F08952C
S113141090958095709561957F4F8F4F9F4F08955C
S1131420AEE0B0E0E6E1FAE00C94D10C0D891E893F
S113143086E08C831A8309838FEF9FE79E838D83D5
S1131440AE01475E5F4F6F89788DCE0101960E9491
S1131450320AEF81F885E00FF11F10822E96E4E046
S11314600C94ED0CABE0B0E0E8E3FAE00C94C30CB0
S11314706C017B018A01FC0117821682838181FF42
S1131480CCC1CE0101963C01F6019381F70193FD95
S1131490859193FF81917F01882309F4BAC1853234
S11314A039F493FD859193FF81917F01853229F46D
S11314B0B60190E00E94290CE7CF912C212C312C0D
S11314C0FFE1F315D8F08B3279F038F4803279F0FB
S11314D08332A1F4232D20611DC08D3261F080334D
S11314E069F4232D216016C0832D8260382EE32DEC
S11314F0E4603E2E2AC0F32DF8601DC037FC2DC0D9
S113150020ED280F2A3040F08E32B9F436FC81C128
S1131510232D2064322E19C036FE06C08AE0989E20
S1131520200D1124922E11C0EAE02E9E200D1124CC
S1131530222EF32DF0623F2E08C08C3621F4832D29
S11315408068382E02C0883641F4F70193FD8591F6
S113155093FF81917F018111B3CF982F9F7D955483
S1131560933028F40C5F1F4F9FE399830DC083369B
S113157031F0833771F0833509F059C021C0F80187
S1131580808189830E5F1F4F88248394912C53019B
S113159013C02801F2E04F0E511CF801A080B18065
S11315A036FE03C0692D70E002C06FEF7FEFC50106
S11315B00E941E0C4C018201F32DFF773F2E16C0B2
S11315C0280122E0420E511CF801A080B18036FEB1
S11315D003C0692D70E002C06FEF7FEFC5010E9468
S11315E0130C4C01F32DF0683F2E820133FC1BC019
S11315F0822D90E088169906B0F4B60180E290E05E
S11316000E94290C2A94F4CFF50137FC859137FE0A
S113161081915F01B60190E00E94290C21102A9467
S113162021E0821A91088114910471F7E8C084368C
S113163011F0893641F5F80137FE07C060817181E8
S1131640828193810C5F1F4F08C060817181072ED6
S1131650000C880B990B0E5F1F4FF32DFF763F2E66
S113166097FF09C090958095709561957F4F8F4F36
S11316709F4FF0683F2E2AE030E0A3010E94650CE2
S1131680882E861845C0853731F4232D2F7EB22E3F
S11316902AE030E025C0932D997FB92E8F36C1F012
S11316A018F4883579F0B5C0803719F0883721F0FF
S11316B0B0C0E92FE061BE2EB4FE0DC0FB2DF46076
S11316C0BF2E09C034FE0AC0292F2660B22E06C0E0
S11316D028E030E005C020E130E002C020E132E043
S11316E0F801B7FE07C060817181828193810C5F2C
S11316F01F4F06C06081718180E090E00E5F1F4F34
S1131700A3010E94650C882E8618FB2DFF773F2EBF
S113171036FE0DC0232D2E7FA22E891458F434FEDC
S11317200BC032FC09C0832D8E7EA82E05C0B82CB8
S1131730A32C03C0B82C01C0B92CA4FE0FC0FE0119
S1131740E80DF11D8081803321F49A2D997EA92E14
S113175009C0A2FE06C0B394B39404C08A2D86784F
S113176009F0B394A3FC11C0A0FE06C0B21488F41F
S1131770280C922C9B180EC0B21460F4B60180E2BF
S113178090E00E94290CB394F7CFB21418F42B18EC
S113179002C0982C212CA4FE10C0B60180E390E076
S11317A00E94290CA2FE17C0A1FC03C088E790E0A8
S11317B002C088E590E0B6010CC08A2D867859F005
S11317C0A1FE02C08BE201C080E2A7FC8DE2B6015B
S11317D090E00E94290C891438F4B60180E390E06B
S11317E00E94290C9A94F7CF8A94F301E80DF11D15
S11317F08081B60190E00E94290C8110F5CF22204F
S113180009F442CEB60180E290E00E94290C2A94A9
S1131810F6CFF6018681978102C08FEF9FEF2B965A
S1131820E2E10C94DF0CFC01059061507040011062
S1131830D8F7809590958E0F9F1F0895FC016150F5
S1131840704001900110D8F7809590958E0F9F1FDE
S113185008950F931F93CF93DF93FB01238121FD01
S113186003C08FEF9FEF2CC022FF16C04681578123
S1131870248135814217530744F4A081B1819D012D
S11318802F5F3F4F318320838C93268137812F5FD5
S11318903F4F3783268314C08B01EC01FB01008486
S11318A0F185E02D0995892BE1F6D80116968D91E5
S11318B09C911797019617969C938E931697CE0139
S11318C0DF91CF911F910F910895FA01AA27283033
S11318D051F1203181F1E8946F936E7F6E5F7F4FF9
S11318E08F4F9F4FAF4FB1E03ED0B4E03CD0670F75
S11318F0781F891F9A1FA11D680F791F8A1F911DC8
S1131900A11D6A0F711D811D911DA11D20D009F417
S113191068943F912AE0269F11243019305D319359
S1131920DEF6CF010895462F4770405D4193B3E042
S11319300FD0C9F7F6CF462F4F70405D4A3318F0E9
S1131940495D31FD4052419302D0A9F7EACFB4E09A
S1131950A6959795879577956795BA95C9F7009752
S11319606105710508959B01AC010A2E06945795F3
S1131970479537952795BA95C9F7620F731F841F4A
S1131980951FA01D08952F923F924F925F926F92E0
S11319907F928F929F92AF92BF92CF92DF92EF92FB
S11319A0FF920F931F93CF93DF93CDB7DEB7CA1B7C
S11319B0DB0B0FB6F894DEBF0FBECDBF09942A88A7
S11319C0398848885F846E847D848C849B84AA844F
S11319D0B984C884DF80EE80FD800C811B81AA81DC
S11319E0B981CE0FD11D0FB6F894DEBF0FBECDBFA7
S10B19F0ED010895F894FFCF06
S11319F801000101012575007C00542E20566D3A22
S1131A0800542E20416D3A00542E2056643A004D5D
S1131A186F646F20413A004D6F646F204D3A004C5B
S10D1A28555800632F6D003C0000C8
S9030000FC
