:100000000C943E000C945B000C945B000C945B0021
:100010000C945B000C945B000C945B000C945B00F4
:100020000C945B000C945B000C945B000C945B00E4
:100030000C945B000C945B000C94AC000C945B0083
:100040000C945B000C945B000C945D000C945B00C2
:100050000C945B000C945B000C945B000C945B00B4
:100060000C945B000C945B0079007F00820085009B
:100070008E009100940097009A009D0011241FBEED
:10008000CFEFD8E0DEBFCDBF11E0A0E0B1E0EEE9F8
:10009000F7E002C005900D92A030B107D9F721E03A
:1000A000A0E0B1E001C01D92AC30B207E1F70E94C0
:1000B00093010C94CD030C9400001F920F920FB685
:1000C0000F9211248F939F93AF93BF93EF93FF935E
:1000D000E091C600369903C080EF85B932C08E2FFB
:1000E00090E08A30910568F5FC01EC5CFF4F0C94C0
:1000F000C7038BB18F778BB980EF85B922C080E7BA
:1001000085B91FC080E385B91CC080E185B981E055
:1001100090E090930B0180930A0113C080E185B9B0
:1001200010C080E185B90DC08FE085B90AC087E0B5
:1001300085B907C081E085B904C015B88BB1806866
:100140008BB9FF91EF91BF91AF919F918F910F90DC
:100150000FBE0F901F9018951F920F920FB60F921F
:1001600011248F939F93AF93BF9380910601909139
:100170000701A0910801B09109010196A11DB11DCF
:100180008093060190930701A0930801B0930901A1
:10019000BF91AF919F918F910F900FBE0F901F90C5
:1001A00018958F929F92AF92BF92CF92DF92EF926B
:1001B000FF920F931F9320E030E048EC52E40E943E
:1001C000360220E030E040EA51E40E945A034B013D
:1001D0005C019B01AC0160E070E080EA91E40E9468
:1001E000C4016B017C018091060190910701A091EF
:1001F0000801B091090100910201109103012091C1
:10020000040130910501BC01CD01601B710B820B13
:10021000930B0E94A8029B01AC01C501B4010E948E
:100220003102181614F18091000190910101892B7F
:10023000E1F48BB18B7F8BB980910001909101012A
:1002400001969093010180930001809106019091A5
:100250000701A0910801B0910901809302019093D8
:100260000301A0930401B0930501809106019091D0
:100270000701A0910801B0910901809002019090BE
:100280000301A0900401B0900501BC01CD016819E3
:1002900079098A099B090E94A8029B01AC01C70148
:1002A000B6010E9431021816ECF080910001909185
:1002B00001010197B9F48BB184608BB910920101EF
:1002C000109200018091060190910701A091080110
:1002D000B09109018093020190930301A09304015E
:1002E000B09305011F910F91FF90EF90DF90CF9099
:1002F000BF90AF909F908F90089536990AC08BB1B0
:1003000080618BB960E070E080EF90E40E94D100E2
:1003100008958BB18F7E8BB960E070E080EA90E445
:100320000E94D10008959FEF94B984E18AB98BB1FE
:1003300084608BB98FEB87B988B1806488B91092DB
:10034000C5009093C40088E98093C10086E0809343
:10035000C2008FE39CE9909387008093860082EA35
:100360008093B0008AE18093B10080ED8093B40067
:1003700082E084BD93E095BD99EF97BD80936E00B8
:1003800078940E947D01FDCF5058BB27AA270E9478
:10039000DC010C9420030E94120338F00E94190320
:1003A00020F039F49F3F19F426F40C940F030EF457
:1003B000E095E7FB0C940903E92F0E94310358F301
:1003C000BA17620773078407950720F079F4A6F53A
:1003D0000C9453030EF4E0950B2EBA2FA02D0B01B5
:1003E000B90190010C01CA01A0011124FF27591B7A
:1003F00099F0593F50F4503E68F11A16F040A22F80
:10040000232F342F4427585FF3CF469537952795F0
:10041000A795F0405395C9F77EF41F16BA0B620BEF
:10042000730B840BBAF09150A1F0FF0FBB1F661F36
:10043000771F881FC2F70EC0BA0F621F731F841F79
:1004400048F4879577956795B795F7959E3F08F09F
:10045000B0CF9395880F08F09927EE0F9795879561
:1004600008950E94E50208F481E008950E944A027E
:100470000C9420030E94190358F00E94120340F0CC
:1004800029F45F3F29F00C94090351110C94540393
:100490000C940F030E94310368F39923B1F35523A1
:1004A00091F3951B550BBB27AA2762177307840787
:1004B00038F09F5F5F4F220F331F441FAA1FA9F31D
:1004C00035D00E2E3AF0E0E832D091505040E6950B
:1004D000001CCAF72BD0FE2F29D0660F771F881F6C
:1004E000BB1F261737074807AB07B0E809F0BB0B5F
:1004F000802DBF01FF2793585F4F3AF09E3F510573
:1005000078F00C9409030C9454035F3FE4F3983E95
:10051000D4F3869577956795B795F7959F5FC9F75B
:10052000880F911D9695879597F90895E1E0660FDC
:10053000771F881FBB1F621773078407BA0720F055
:10054000621B730B840BBA0BEE1F88F7E0950895BE
:10055000E89409C097FB3EF490958095709561955D
:100560007F4F8F4F9F4F9923A9F0F92F96E9BB2713
:100570009395F695879577956795B795F111F8CF8F
:10058000FAF4BB0F11F460FF1BC06F5F7F4F8F4FFA
:100590009F4F16C0882311F096E911C0772321F0F0
:1005A0009EE8872F762F05C0662371F096E8862F88
:1005B00070E060E02AF09A95660F771F881FDAF7DF
:1005C000880F9695879597F90895990F0008550F0C
:1005D000AA0BE0E8FEEF16161706E807F907C0F0C9
:1005E00012161306E407F50798F0621B730B840BD1
:1005F000950B39F40A2661F0232B242B252B21F4AB
:1006000008950A2609F4A140A6958FEF811D811D4A
:10061000089597F99F6780E870E060E008959FEF84
:1006200080EC089500240A94161617061806090689
:10063000089500240A941216130614060506089558
:10064000092E0394000C11F4882352F0BB0F40F4E0
:10065000BF2B11F460FF04C06F5F7F4F8F4F9F4F20
:10066000089557FD9058440F551F59F05F3F71F0A2
:100670004795880F97FB991F61F09F3F79F0879509
:100680000895121613061406551FF2CF4695F1DF92
:1006900008C0161617061806991FF1CF8695710522
:1006A000610508940895E894BB2766277727CB0156
:1006B00097F908950E946D030C9420030E94120381
:1006C00038F00E94190320F0952311F00C940903CF
:1006D0000C940F0311240C9454030E94310370F303
:1006E000959FC1F3950F50E0551F629FF001729FD7
:1006F000BB27F00DB11D639FAA27F00DB11DAA1FE6
:10070000649F6627B00DA11D661F829F2227B00D32
:10071000A11D621F739FB00DA11D621F839FA00DBD
:10072000611D221F749F3327A00D611D231F849F0D
:10073000600D211D822F762F6A2F11249F57504064
:100740009AF0F1F088234AF0EE0FFF1FBB1F661FDF
:10075000771F881F91505040A9F79E3F510580F0A8
:100760000C9409030C9454035F3FE4F3983ED4F3D4
:10077000869577956795B795F795E7959F5FC1F74C
:10078000FE2B880F911D9695879597F90895EE0F8A
:0E079000FF1F0590F491E02D0994F894FFCF1F
:00000001FF
